{
  "contractName": "CryptoDoggies",
  "abi": [
    {
      "constant": true,
      "inputs": [],
      "name": "ceoAddress",
      "outputs": [
        {
          "name": "",
          "type": "address"
        }
      ],
      "payable": false,
      "stateMutability": "view",
      "type": "function"
    },
    {
      "constant": false,
      "inputs": [
        {
          "name": "_newCEO",
          "type": "address"
        }
      ],
      "name": "setCEO",
      "outputs": [],
      "payable": false,
      "stateMutability": "nonpayable",
      "type": "function"
    },
    {
      "constant": false,
      "inputs": [
        {
          "name": "_newCOO",
          "type": "address"
        }
      ],
      "name": "setCOO",
      "outputs": [],
      "payable": false,
      "stateMutability": "nonpayable",
      "type": "function"
    },
    {
      "constant": false,
      "inputs": [],
      "name": "unpause",
      "outputs": [],
      "payable": false,
      "stateMutability": "nonpayable",
      "type": "function"
    },
    {
      "constant": true,
      "inputs": [],
      "name": "paused",
      "outputs": [
        {
          "name": "",
          "type": "bool"
        }
      ],
      "payable": false,
      "stateMutability": "view",
      "type": "function"
    },
    {
      "constant": false,
      "inputs": [],
      "name": "pause",
      "outputs": [],
      "payable": false,
      "stateMutability": "nonpayable",
      "type": "function"
    },
    {
      "constant": true,
      "inputs": [],
      "name": "cooAddress",
      "outputs": [
        {
          "name": "",
          "type": "address"
        }
      ],
      "payable": false,
      "stateMutability": "view",
      "type": "function"
    },
    {
      "anonymous": false,
      "inputs": [
        {
          "indexed": false,
          "name": "tokenId",
          "type": "uint256"
        },
        {
          "indexed": false,
          "name": "name",
          "type": "string"
        },
        {
          "indexed": false,
          "name": "dna",
          "type": "bytes5"
        },
        {
          "indexed": false,
          "name": "price",
          "type": "uint256"
        },
        {
          "indexed": false,
          "name": "owner",
          "type": "address"
        }
      ],
      "name": "TokenCreated",
      "type": "event"
    },
    {
      "anonymous": false,
      "inputs": [
        {
          "indexed": true,
          "name": "tokenId",
          "type": "uint256"
        },
        {
          "indexed": false,
          "name": "name",
          "type": "string"
        },
        {
          "indexed": false,
          "name": "dna",
          "type": "bytes5"
        },
        {
          "indexed": false,
          "name": "sellingPrice",
          "type": "uint256"
        },
        {
          "indexed": false,
          "name": "newPrice",
          "type": "uint256"
        },
        {
          "indexed": true,
          "name": "oldOwner",
          "type": "address"
        },
        {
          "indexed": true,
          "name": "newOwner",
          "type": "address"
        }
      ],
      "name": "TokenSold",
      "type": "event"
    },
    {
      "anonymous": false,
      "inputs": [
        {
          "indexed": true,
          "name": "_from",
          "type": "address"
        },
        {
          "indexed": true,
          "name": "_to",
          "type": "address"
        },
        {
          "indexed": false,
          "name": "_tokenId",
          "type": "uint256"
        }
      ],
      "name": "Transfer",
      "type": "event"
    },
    {
      "anonymous": false,
      "inputs": [
        {
          "indexed": true,
          "name": "_owner",
          "type": "address"
        },
        {
          "indexed": true,
          "name": "_approved",
          "type": "address"
        },
        {
          "indexed": false,
          "name": "_tokenId",
          "type": "uint256"
        }
      ],
      "name": "Approval",
      "type": "event"
    },
    {
      "constant": false,
      "inputs": [
        {
          "name": "_name",
          "type": "string"
        }
      ],
      "name": "createToken",
      "outputs": [],
      "payable": false,
      "stateMutability": "nonpayable",
      "type": "function"
    },
    {
      "constant": false,
      "inputs": [
        {
          "name": "_name",
          "type": "string"
        },
        {
          "name": "_owner",
          "type": "address"
        },
        {
          "name": "_price",
          "type": "uint256"
        }
      ],
      "name": "createToken",
      "outputs": [],
      "payable": false,
      "stateMutability": "nonpayable",
      "type": "function"
    },
    {
      "constant": true,
      "inputs": [
        {
          "name": "_tokenId",
          "type": "uint256"
        }
      ],
      "name": "getToken",
      "outputs": [
        {
          "name": "_tokenName",
          "type": "string"
        },
        {
          "name": "_dna",
          "type": "bytes5"
        },
        {
          "name": "_price",
          "type": "uint256"
        },
        {
          "name": "_nextPrice",
          "type": "uint256"
        },
        {
          "name": "_owner",
          "type": "address"
        }
      ],
      "payable": false,
      "stateMutability": "view",
      "type": "function"
    },
    {
      "constant": true,
      "inputs": [],
      "name": "getAllTokens",
      "outputs": [
        {
          "name": "",
          "type": "uint256[]"
        },
        {
          "name": "",
          "type": "uint256[]"
        },
        {
          "name": "",
          "type": "address[]"
        }
      ],
      "payable": false,
      "stateMutability": "view",
      "type": "function"
    },
    {
      "constant": true,
      "inputs": [
        {
          "name": "_owner",
          "type": "address"
        }
      ],
      "name": "tokensOf",
      "outputs": [
        {
          "name": "",
          "type": "uint256[]"
        }
      ],
      "payable": false,
      "stateMutability": "view",
      "type": "function"
    },
    {
      "constant": false,
      "inputs": [
        {
          "name": "_to",
          "type": "address"
        },
        {
          "name": "_amount",
          "type": "uint256"
        }
      ],
      "name": "withdrawBalance",
      "outputs": [],
      "payable": false,
      "stateMutability": "nonpayable",
      "type": "function"
    },
    {
      "constant": false,
      "inputs": [
        {
          "name": "_tokenId",
          "type": "uint256"
        }
      ],
      "name": "purchase",
      "outputs": [],
      "payable": true,
      "stateMutability": "payable",
      "type": "function"
    },
    {
      "constant": true,
      "inputs": [
        {
          "name": "_tokenId",
          "type": "uint256"
        }
      ],
      "name": "priceOf",
      "outputs": [
        {
          "name": "_price",
          "type": "uint256"
        }
      ],
      "payable": false,
      "stateMutability": "view",
      "type": "function"
    },
    {
      "constant": true,
      "inputs": [
        {
          "name": "_tokenId",
          "type": "uint256"
        }
      ],
      "name": "nextPriceOf",
      "outputs": [
        {
          "name": "_nextPrice",
          "type": "uint256"
        }
      ],
      "payable": false,
      "stateMutability": "view",
      "type": "function"
    },
    {
      "constant": false,
      "inputs": [],
      "name": "enableERC721",
      "outputs": [],
      "payable": false,
      "stateMutability": "nonpayable",
      "type": "function"
    },
    {
      "constant": true,
      "inputs": [],
      "name": "totalSupply",
      "outputs": [
        {
          "name": "_totalSupply",
          "type": "uint256"
        }
      ],
      "payable": false,
      "stateMutability": "view",
      "type": "function"
    },
    {
      "constant": true,
      "inputs": [
        {
          "name": "_owner",
          "type": "address"
        }
      ],
      "name": "balanceOf",
      "outputs": [
        {
          "name": "_balance",
          "type": "uint256"
        }
      ],
      "payable": false,
      "stateMutability": "view",
      "type": "function"
    },
    {
      "constant": true,
      "inputs": [
        {
          "name": "_tokenId",
          "type": "uint256"
        }
      ],
      "name": "ownerOf",
      "outputs": [
        {
          "name": "_owner",
          "type": "address"
        }
      ],
      "payable": false,
      "stateMutability": "view",
      "type": "function"
    },
    {
      "constant": false,
      "inputs": [
        {
          "name": "_to",
          "type": "address"
        },
        {
          "name": "_tokenId",
          "type": "uint256"
        }
      ],
      "name": "approve",
      "outputs": [],
      "payable": false,
      "stateMutability": "nonpayable",
      "type": "function"
    },
    {
      "constant": false,
      "inputs": [
        {
          "name": "_from",
          "type": "address"
        },
        {
          "name": "_to",
          "type": "address"
        },
        {
          "name": "_tokenId",
          "type": "uint256"
        }
      ],
      "name": "transferFrom",
      "outputs": [],
      "payable": false,
      "stateMutability": "nonpayable",
      "type": "function"
    },
    {
      "constant": false,
      "inputs": [
        {
          "name": "_to",
          "type": "address"
        },
        {
          "name": "_tokenId",
          "type": "uint256"
        }
      ],
      "name": "transfer",
      "outputs": [],
      "payable": false,
      "stateMutability": "nonpayable",
      "type": "function"
    },
    {
      "constant": true,
      "inputs": [],
      "name": "implementsERC721",
      "outputs": [
        {
          "name": "",
          "type": "bool"
        }
      ],
      "payable": false,
      "stateMutability": "view",
      "type": "function"
    },
    {
      "constant": false,
      "inputs": [
        {
          "name": "_tokenId",
          "type": "uint256"
        }
      ],
      "name": "takeOwnership",
      "outputs": [],
      "payable": false,
      "stateMutability": "nonpayable",
      "type": "function"
    },
    {
      "constant": true,
      "inputs": [],
      "name": "name",
      "outputs": [
        {
          "name": "_name",
          "type": "string"
        }
      ],
      "payable": false,
      "stateMutability": "view",
      "type": "function"
    },
    {
      "constant": true,
      "inputs": [],
      "name": "symbol",
      "outputs": [
        {
          "name": "_symbol",
          "type": "string"
        }
      ],
      "payable": false,
      "stateMutability": "view",
      "type": "function"
    }
  ],
  "bytecode": "0x60806040526000600160146101000a81548160ff021916908315150217905550662386f26fc100006007556000600860006101000a81548160ff02191690831515021790555066470de4df82000060095566b1a2bc2ec50000600a55671bc16d674ec80000600b55674563918244f40000600c55336000806101000a81548173ffffffffffffffffffffffffffffffffffffffff021916908373ffffffffffffffffffffffffffffffffffffffff16021790555033600160006101000a81548173ffffffffffffffffffffffffffffffffffffffff021916908373ffffffffffffffffffffffffffffffffffffffff1602179055506126b8806101036000396000f30060806040526004361061015f576000357c0100000000000000000000000000000000000000000000000000000000900463ffffffff16806306fdde0314610164578063095ea7b3146101f45780630a0f8168146102415780630cf20cc9146102985780631051db34146102e557806318160ddd1461031457806323b872dd1461033f57806327d7874c146103ac5780632a5c792a146103ef5780632ba73c15146104eb5780633f4ba83a1461052e57806345576f94146105455780635a3f2672146105ae5780635ba9e48e146106465780635c975abb146106875780636352211e146106b657806370a082311461072357806371dc761e1461077a57806373b4df05146107915780638456cb591461082457806395d89b411461083b578063a9059cbb146108cb578063b047fb5014610918578063b2e6ceeb1461096f578063b9186d7d1461099c578063e4b50cb8146109dd578063efef39a114610b07575b600080fd5b34801561017057600080fd5b50610179610b27565b6040518080602001828103825283818151815260200191508051906020019080838360005b838110156101b957808201518184015260208101905061019e565b50505050905090810190601f1680156101e65780820380516001836020036101000a031916815260200191505b509250505060405180910390f35b34801561020057600080fd5b5061023f600480360381019080803573ffffffffffffffffffffffffffffffffffffffff16906020019092919080359060200190929190505050610b64565b005b34801561024d57600080fd5b50610256610c6b565b604051808273ffffffffffffffffffffffffffffffffffffffff1673ffffffffffffffffffffffffffffffffffffffff16815260200191505060405180910390f35b3480156102a457600080fd5b506102e3600480360381019080803573ffffffffffffffffffffffffffffffffffffffff16906020019092919080359060200190929190505050610c90565b005b3480156102f157600080fd5b506102fa610e24565b604051808215151515815260200191505060405180910390f35b34801561032057600080fd5b50610329610e57565b6040518082815260200191505060405180910390f35b34801561034b57600080fd5b506103aa600480360381019080803573ffffffffffffffffffffffffffffffffffffffff169060200190929190803573ffffffffffffffffffffffffffffffffffffffff16906020019092919080359060200190929190505050610e64565b005b3480156103b857600080fd5b506103ed600480360381019080803573ffffffffffffffffffffffffffffffffffffffff169060200190929190505050610f11565b005b3480156103fb57600080fd5b50610404610feb565b60405180806020018060200180602001848103845287818151815260200191508051906020019060200280838360005b8381101561044f578082015181840152602081019050610434565b50505050905001848103835286818151815260200191508051906020019060200280838360005b83811015610491578082015181840152602081019050610476565b50505050905001848103825285818151815260200191508051906020019060200280838360005b838110156104d35780820151818401526020810190506104b8565b50505050905001965050505050505060405180910390f35b3480156104f757600080fd5b5061052c600480360381019080803573ffffffffffffffffffffffffffffffffffffffff169060200190929190505050611199565b005b34801561053a57600080fd5b50610543611274565b005b34801561055157600080fd5b506105ac600480360381019080803590602001908201803590602001908080601f0160208091040260200160405190810160405280939291908181526020018383808284378201915050505050509192919290505050611307565b005b3480156105ba57600080fd5b506105ef600480360381019080803573ffffffffffffffffffffffffffffffffffffffff1690602001909291905050506113d8565b6040518080602001828103825283818151815260200191508051906020019060200280838360005b83811015610632578082015181840152602081019050610617565b505050509050019250505060405180910390f35b34801561065257600080fd5b5061067160048036038101908080359060200190929190505050611524565b6040518082815260200191505060405180910390f35b34801561069357600080fd5b5061069c611646565b604051808215151515815260200191505060405180910390f35b3480156106c257600080fd5b506106e160048036038101908080359060200190929190505050611659565b604051808273ffffffffffffffffffffffffffffffffffffffff1673ffffffffffffffffffffffffffffffffffffffff16815260200191505060405180910390f35b34801561072f57600080fd5b50610764600480360381019080803573ffffffffffffffffffffffffffffffffffffffff169060200190929190505050611696565b6040518082815260200191505060405180910390f35b34801561078657600080fd5b5061078f6116df565b005b34801561079d57600080fd5b50610822600480360381019080803590602001908201803590602001908080601f0160208091040260200160405190810160405280939291908181526020018383808284378201915050505050509192919290803573ffffffffffffffffffffffffffffffffffffffff16906020019092919080359060200190929190505050611757565b005b34801561083057600080fd5b50610839611875565b005b34801561084757600080fd5b50610850611908565b6040518080602001828103825283818151815260200191508051906020019080838360005b83811015610890578082015181840152602081019050610875565b50505050905090810190601f1680156108bd5780820380516001836020036101000a031916815260200191505b509250505060405180910390f35b3480156108d757600080fd5b50610916600480360381019080803573ffffffffffffffffffffffffffffffffffffffff16906020019092919080359060200190929190505050611945565b005b34801561092457600080fd5b5061092d6119dc565b604051808273ffffffffffffffffffffffffffffffffffffffff1673ffffffffffffffffffffffffffffffffffffffff16815260200191505060405180910390f35b34801561097b57600080fd5b5061099a60048036038101908080359060200190929190505050611a02565b005b3480156109a857600080fd5b506109c760048036038101908080359060200190929190505050611a8f565b6040518082815260200191505060405180910390f35b3480156109e957600080fd5b50610a0860048036038101908080359060200190929190505050611aac565b6040518080602001867affffffffffffffffffffffffffffffffffffffffffffffffffffff19167affffffffffffffffffffffffffffffffffffffffffffffffffffff191681526020018581526020018481526020018373ffffffffffffffffffffffffffffffffffffffff1673ffffffffffffffffffffffffffffffffffffffff168152602001828103825287818151815260200191508051906020019080838360005b83811015610ac8578082015181840152602081019050610aad565b50505050905090810190601f168015610af55780820380516001836020036101000a031916815260200191505b50965050505050505060405180910390f35b610b2560048036038101908080359060200190929190505050611c1a565b005b60606040805190810160405280601181526020017f4265726b617943616e6b75436167646173000000000000000000000000000000815250905090565b600160149054906101000a900460ff16151515610b8057600080fd5b600860009054906101000a900460ff161515610b9b57600080fd5b610ba5338261203b565b1515610bb057600080fd5b816005600083815260200190815260200160002060006101000a81548173ffffffffffffffffffffffffffffffffffffffff021916908373ffffffffffffffffffffffffffffffffffffffff1602179055508173ffffffffffffffffffffffffffffffffffffffff163373ffffffffffffffffffffffffffffffffffffffff167f8c5be1e5ebec7d5bd14f71427d1e84f3dd0314c0f7b2291e5b200ac8c7c3b925836040518082815260200191505060405180910390a35050565b6000809054906101000a900473ffffffffffffffffffffffffffffffffffffffff1681565b6000809054906101000a900473ffffffffffffffffffffffffffffffffffffffff1673ffffffffffffffffffffffffffffffffffffffff163373ffffffffffffffffffffffffffffffffffffffff16141515610ceb57600080fd5b3073ffffffffffffffffffffffffffffffffffffffff16318111151515610d1157600080fd5b6000811415610d35573073ffffffffffffffffffffffffffffffffffffffff163190505b600073ffffffffffffffffffffffffffffffffffffffff168273ffffffffffffffffffffffffffffffffffffffff16141515610dd8576000809054906101000a900473ffffffffffffffffffffffffffffffffffffffff1673ffffffffffffffffffffffffffffffffffffffff166108fc829081150290604051600060405180830381858888f19350505050158015610dd2573d6000803e3d6000fd5b50610e20565b8173ffffffffffffffffffffffffffffffffffffffff166108fc829081150290604051600060405180830381858888f19350505050158015610e1e573d6000803e3d6000fd5b505b5050565b6000600160149054906101000a900460ff16151515610e4257600080fd5b600860009054906101000a900460ff16905090565b6000600680549050905090565b600160149054906101000a900460ff16151515610e8057600080fd5b600860009054906101000a900460ff161515610e9b57600080fd5b600073ffffffffffffffffffffffffffffffffffffffff168273ffffffffffffffffffffffffffffffffffffffff1614151515610ed757600080fd5b610ee1838261203b565b1515610eec57600080fd5b610ef633826120a7565b1515610f0157600080fd5b610f0c838383612113565b505050565b6000809054906101000a900473ffffffffffffffffffffffffffffffffffffffff1673ffffffffffffffffffffffffffffffffffffffff163373ffffffffffffffffffffffffffffffffffffffff16141515610f6c57600080fd5b600073ffffffffffffffffffffffffffffffffffffffff168173ffffffffffffffffffffffffffffffffffffffff1614151515610fa857600080fd5b806000806101000a81548173ffffffffffffffffffffffffffffffffffffffff021916908373ffffffffffffffffffffffffffffffffffffffff16021790555050565b6060806060600060608060606000611001610e57565b9450846040519080825280602002602001820160405280156110325781602001602082028038833980820191505090505b509350846040519080825280602002602001820160405280156110645781602001602082028038833980820191505090505b509250846040519080825280602002602001820160405280156110965781602001602082028038833980820191505090505b509150600090505b8481101561118657600360008281526020019081526020016000205484828151811015156110c857fe5b90602001906020020181815250506110df81611524565b83828151811015156110ed57fe5b90602001906020020181815250506002600082815260200190815260200160002060009054906101000a900473ffffffffffffffffffffffffffffffffffffffff16828281518110151561113d57fe5b9060200190602002019073ffffffffffffffffffffffffffffffffffffffff16908173ffffffffffffffffffffffffffffffffffffffff1681525050808060010191505061109e565b8383839750975097505050505050909192565b6000809054906101000a900473ffffffffffffffffffffffffffffffffffffffff1673ffffffffffffffffffffffffffffffffffffffff163373ffffffffffffffffffffffffffffffffffffffff161415156111f457600080fd5b600073ffffffffffffffffffffffffffffffffffffffff168173ffffffffffffffffffffffffffffffffffffffff161415151561123057600080fd5b80600160006101000a81548173ffffffffffffffffffffffffffffffffffffffff021916908373ffffffffffffffffffffffffffffffffffffffff16021790555050565b6000809054906101000a900473ffffffffffffffffffffffffffffffffffffffff1673ffffffffffffffffffffffffffffffffffffffff163373ffffffffffffffffffffffffffffffffffffffff161415156112cf57600080fd5b600160149054906101000a900460ff1615156112ea57600080fd5b6000600160146101000a81548160ff021916908315150217905550565b60008060009054906101000a900473ffffffffffffffffffffffffffffffffffffffff1673ffffffffffffffffffffffffffffffffffffffff163373ffffffffffffffffffffffffffffffffffffffff1614806113b15750600160009054906101000a900473ffffffffffffffffffffffffffffffffffffffff1673ffffffffffffffffffffffffffffffffffffffff163373ffffffffffffffffffffffffffffffffffffffff16145b15156113bc57600080fd5b6113c46122db565b90506113d482823060075461230b565b5050565b60606000606060008060006113ec87611696565b9450600085141561142f5760006040519080825280602002602001820160405280156114275781602001602082028038833980820191505090505b50955061151a565b8460405190808252806020026020018201604052801561145e5781602001602082028038833980820191505090505b509350611469610e57565b925060009150600090505b82811015611516578673ffffffffffffffffffffffffffffffffffffffff166002600083815260200190815260200160002060009054906101000a900473ffffffffffffffffffffffffffffffffffffffff1673ffffffffffffffffffffffffffffffffffffffff161415611509578084838151811015156114f257fe5b906020019060200201818152505081806001019250505b8080600101915050611474565b8395505b5050505050919050565b60008061153083611a8f565b905060095481101561156a57611563605f61155560c88461252d90919063ffffffff16565b61256890919063ffffffff16565b9150611640565b600a548110156115a25761159b606061158d60878461252d90919063ffffffff16565b61256890919063ffffffff16565b9150611640565b600b548110156115d9576115d360616115c5607d8461252d90919063ffffffff16565b61256890919063ffffffff16565b5061163f565b600c548110156116105761160a60616115fc60758461252d90919063ffffffff16565b61256890919063ffffffff16565b5061163e565b611637606261162960738461252d90919063ffffffff16565b61256890919063ffffffff16565b9150611640565b5b5b50919050565b600160149054906101000a900460ff1681565b60006002600083815260200190815260200160002060009054906101000a900473ffffffffffffffffffffffffffffffffffffffff169050919050565b6000600460008373ffffffffffffffffffffffffffffffffffffffff1673ffffffffffffffffffffffffffffffffffffffff168152602001908152602001600020549050919050565b6000809054906101000a900473ffffffffffffffffffffffffffffffffffffffff1673ffffffffffffffffffffffffffffffffffffffff163373ffffffffffffffffffffffffffffffffffffffff1614151561173a57600080fd5b6001600860006101000a81548160ff021916908315150217905550565b60008060009054906101000a900473ffffffffffffffffffffffffffffffffffffffff1673ffffffffffffffffffffffffffffffffffffffff163373ffffffffffffffffffffffffffffffffffffffff1614806118015750600160009054906101000a900473ffffffffffffffffffffffffffffffffffffffff1673ffffffffffffffffffffffffffffffffffffffff163373ffffffffffffffffffffffffffffffffffffffff16145b151561180c57600080fd5b600073ffffffffffffffffffffffffffffffffffffffff168373ffffffffffffffffffffffffffffffffffffffff161415151561184857600080fd5b600754821015151561185957600080fd5b6118616122db565b905061186f8482858561230b565b50505050565b6000809054906101000a900473ffffffffffffffffffffffffffffffffffffffff1673ffffffffffffffffffffffffffffffffffffffff163373ffffffffffffffffffffffffffffffffffffffff161415156118d057600080fd5b600160149054906101000a900460ff161515156118ec57600080fd5b60018060146101000a81548160ff021916908315150217905550565b60606040805190810160405280600381526020017f4243430000000000000000000000000000000000000000000000000000000000815250905090565b600160149054906101000a900460ff1615151561196157600080fd5b600860009054906101000a900460ff16151561197c57600080fd5b600073ffffffffffffffffffffffffffffffffffffffff168273ffffffffffffffffffffffffffffffffffffffff16141515156119b857600080fd5b6119c2338261203b565b15156119cd57600080fd5b6119d8338383612113565b5050565b600160009054906101000a900473ffffffffffffffffffffffffffffffffffffffff1681565b600160149054906101000a900460ff16151515611a1e57600080fd5b600860009054906101000a900460ff161515611a3957600080fd5b611a4333826120a7565b1515611a4e57600080fd5b611a8c6002600083815260200190815260200160002060009054906101000a900473ffffffffffffffffffffffffffffffffffffffff163383612113565b50565b600060036000838152602001908152602001600020549050919050565b6060600080600080600686815481101515611ac357fe5b90600052602060002090600202016000018054600181600116156101000203166002900480601f016020809104026020016040519081016040528092919081815260200182805460018160011615610100020316600290048015611b685780601f10611b3d57610100808354040283529160200191611b68565b820191906000526020600020905b815481529060010190602001808311611b4b57829003601f168201915b50505050509450600686815481101515611b7e57fe5b906000526020600020906002020160010160009054906101000a90047b0100000000000000000000000000000000000000000000000000000002935060036000878152602001908152602001600020549250611bd986611524565b91506002600087815260200190815260200160002060009054906101000a900473ffffffffffffffffffffffffffffffffffffffff16905091939590929450565b6000806000806000600160149054906101000a900460ff16151515611c3e57600080fd5b611c4786611659565b9450339350611c5586611a8f565b9250600073ffffffffffffffffffffffffffffffffffffffff168573ffffffffffffffffffffffffffffffffffffffff1614151515611c9357600080fd5b600073ffffffffffffffffffffffffffffffffffffffff168473ffffffffffffffffffffffffffffffffffffffff1614151515611ccf57600080fd5b8373ffffffffffffffffffffffffffffffffffffffff168573ffffffffffffffffffffffffffffffffffffffff1614151515611d0a57600080fd5b611d1384612583565b151515611d1f57600080fd5b600083111515611d2e57600080fd5b823410151515611d3d57600080fd5b611d48858588612113565b611d5186611524565b60036000888152602001908152602001600020819055508373ffffffffffffffffffffffffffffffffffffffff168573ffffffffffffffffffffffffffffffffffffffff16877f47c2495ae9a226645e2cfa7b81ab70c2d82f35b0c69a72358812cca2f0f0bcbc60068a815481101515611dc757fe5b906000526020600020906002020160000160068b815481101515611de757fe5b906000526020600020906002020160010160009054906101000a90047b010000000000000000000000000000000000000000000000000000000288611e2b8d611a8f565b6040518080602001857affffffffffffffffffffffffffffffffffffffffffffffffffffff19167affffffffffffffffffffffffffffffffffffffffffffffffffffff19168152602001848152602001838152602001828103825286818154600181600116156101000203166002900481526020019150805460018160011615610100020316600290048015611f025780601f10611ed757610100808354040283529160200191611f02565b820191906000526020600020905b815481529060010190602001808311611ee557829003601f168201915b50509550505050505060405180910390a4611f26833461259690919063ffffffff16565b9150611f51612710611f436101778661252d90919063ffffffff16565b61256890919063ffffffff16565b90503073ffffffffffffffffffffffffffffffffffffffff168573ffffffffffffffffffffffffffffffffffffffff16141515611fe2578473ffffffffffffffffffffffffffffffffffffffff166108fc611fb5838661259690919063ffffffff16565b9081150290604051600060405180830381858888f19350505050158015611fe0573d6000803e3d6000fd5b505b6000821115612033578373ffffffffffffffffffffffffffffffffffffffff166108fc839081150290604051600060405180830381858888f19350505050158015612031573d6000803e3d6000fd5b505b505050505050565b60008273ffffffffffffffffffffffffffffffffffffffff166002600084815260200190815260200160002060009054906101000a900473ffffffffffffffffffffffffffffffffffffffff1673ffffffffffffffffffffffffffffffffffffffff1614905092915050565b60008273ffffffffffffffffffffffffffffffffffffffff166005600084815260200190815260200160002060009054906101000a900473ffffffffffffffffffffffffffffffffffffffff1673ffffffffffffffffffffffffffffffffffffffff1614905092915050565b600460008373ffffffffffffffffffffffffffffffffffffffff1673ffffffffffffffffffffffffffffffffffffffff16815260200190815260200160002060008154809291906001019190505550816002600083815260200190815260200160002060006101000a81548173ffffffffffffffffffffffffffffffffffffffff021916908373ffffffffffffffffffffffffffffffffffffffff160217905550600073ffffffffffffffffffffffffffffffffffffffff168373ffffffffffffffffffffffffffffffffffffffff1614151561227157600460008473ffffffffffffffffffffffffffffffffffffffff1673ffffffffffffffffffffffffffffffffffffffff16815260200190815260200160002060008154809291906001900391905055506005600082815260200190815260200160002060006101000a81549073ffffffffffffffffffffffffffffffffffffffff02191690555b8173ffffffffffffffffffffffffffffffffffffffff168373ffffffffffffffffffffffffffffffffffffffff167fddf252ad1be2c89b69c2b068fc378daa952ba7f163c4a11628f55a4df523b3ef836040518082815260200191505060405180910390a3505050565b6000806000806001430392508240915060d863ffffffff6001028316600019169060020a02905080935050505090565b6123136125af565b60006040805190810160405280878152602001867affffffffffffffffffffffffffffffffffffffffffffffffffffff1916815250915060016006839080600181540180825580915050906001820390600052602060002090600202016000909192909190915060008201518160000190805190602001906123969291906125e7565b5060208201518160010160006101000a81548164ffffffffff02191690837b010000000000000000000000000000000000000000000000000000009004021790555050500390508260036000838152602001908152602001600020819055507fe2541836f6f02475fc0b01a06c1e80d7e5098215c6015348851ceabef9d05e6881878786886040518086815260200180602001857affffffffffffffffffffffffffffffffffffffffffffffffffffff19167affffffffffffffffffffffffffffffffffffffffffffffffffffff191681526020018481526020018373ffffffffffffffffffffffffffffffffffffffff1673ffffffffffffffffffffffffffffffffffffffff168152602001828103825286818151815260200191508051906020019080838360005b838110156124db5780820151818401526020810190506124c0565b50505050905090810190601f1680156125085780820380516001836020036101000a031916815260200191505b50965050505050505060405180910390a161252560008583612113565b505050505050565b60008060008414156125425760009150612561565b828402905082848281151561255357fe5b0414151561255d57fe5b8091505b5092915050565b600080828481151561257657fe5b0490508091505092915050565b600080823b905060008111915050919050565b60008282111515156125a457fe5b818303905092915050565b60408051908101604052806060815260200160007affffffffffffffffffffffffffffffffffffffffffffffffffffff191681525090565b828054600181600116156101000203166002900490600052602060002090601f016020900481019282601f1061262857805160ff1916838001178555612656565b82800160010185558215612656579182015b8281111561265557825182559160200191906001019061263a565b5b5090506126639190612667565b5090565b61268991905b8082111561268557600081600090555060010161266d565b5090565b905600a165627a7a72305820b95e6fe07940ffe938ebbf1d63527be38e0b9bfb9f3e5795820169c196bf62650029",
  "source": "pragma solidity ^0.4.18;\r\n\r\nimport \"./AccessControl.sol\";\r\nimport \"./ERC721.sol\";\r\nimport \"./SafeMath.sol\";\r\n\r\ncontract DetailedERC721 is ERC721 {\r\n    function name() public view returns (string _name);\r\n    function symbol() public view returns (string _symbol);\r\n}\r\n\r\ncontract CryptoDoggies is AccessControl, DetailedERC721 {\r\n    using SafeMath for uint256;\r\n\r\n    event TokenCreated(uint256 tokenId, string name, bytes5 dna, uint256 price, address owner);\r\n    event TokenSold(\r\n    uint256 indexed tokenId, \r\n    string name, \r\n    bytes5 dna, \r\n    uint256 sellingPrice, \r\n    uint256 newPrice, \r\n    address indexed oldOwner, \r\n    address indexed newOwner\r\n    );\r\n\r\n    mapping (uint256 => address) private tokenIdToOwner;\r\n    mapping (uint256 => uint256) private tokenIdToPrice;\r\n    mapping (address => uint256) private ownershipTokenCount;\r\n    mapping (uint256 => address) private tokenIdToApproved;\r\n\r\n    struct Doggy {\r\n        string name;\r\n        bytes5 dna;\r\n    }\r\n\r\n    Doggy[] private doggies;\r\n    \r\n    uint256 private startingPrice = 0.01 ether;\r\n    bool private erc721Enabled = false;\r\n\r\n    modifier onlyERC721(){\r\n        require(erc721Enabled);\r\n        _;\r\n    }\r\n\r\n    function createToken(string _name, address _owner, uint256 _price) public onlyCLevel {\r\n        require(_owner != address(0));\r\n        require(_price >= startingPrice);\r\n\r\n        bytes5 _dna = _generateRandomDna();\r\n        _createToken(_name, _dna, _owner, _price);\r\n    }\r\n\r\n    function createToken(string _name) public onlyCLevel {\r\n        bytes5 _dna = _generateRandomDna();\r\n        _createToken(_name, _dna, address(this), startingPrice);\r\n    }\r\n\r\n    function _generateRandomDna() private view returns (bytes5) {\r\n        uint256 lastBlockNumber = block.number - 1;\r\n        bytes32 hashVal = bytes32(block.blockhash(lastBlockNumber));\r\n        bytes5 dna = bytes5((hashVal & 0xffffffff) << 216);\r\n        return dna;\r\n    }\r\n\r\n    function _createToken(string _name, bytes5 _dna, address _owner, uint256 _price) private {\r\n        Doggy memory _doggy = Doggy({\r\n            name: _name,\r\n            dna: _dna\r\n        });\r\n        uint256 newTokenId = doggies.push(_doggy) - 1;\r\n        tokenIdToPrice[newTokenId] = _price;\r\n\r\n        TokenCreated(newTokenId, _name, _dna, _price, _owner);\r\n\r\n        _transfer(address(0), _owner, newTokenId);\r\n    }\r\n\r\n    function getToken(uint256 _tokenId) public view returns (\r\n        string _tokenName,\r\n        bytes5 _dna,\r\n        uint256 _price,\r\n        uint256 _nextPrice,\r\n        address _owner\r\n    ){\r\n        _tokenName = doggies[_tokenId].name;\r\n        _dna = doggies[_tokenId].dna;\r\n        _price = tokenIdToPrice[_tokenId];\r\n        _nextPrice = nextPriceOf(_tokenId);\r\n        _owner = tokenIdToOwner[_tokenId];\r\n    }\r\n\r\n    function getAllTokens() public view returns (\r\n        uint256[],\r\n        uint256[],\r\n        address[]\r\n    ){\r\n        uint256 total = totalSupply();\r\n        uint256[] memory prices = new uint256[](total);\r\n        uint256[] memory nextPrices = new uint256[](total);\r\n        address[] memory owners = new address[](total);\r\n\r\n        for (uint256 i = 0; i < total; i++) {\r\n            prices[i] = tokenIdToPrice[i];\r\n            nextPrices[i] = nextPriceOf(i);\r\n            owners[i] = tokenIdToOwner[i];\r\n        }\r\n\r\n        return (prices, nextPrices, owners);\r\n    }\r\n\r\n    function tokensOf (address _owner) public view returns(uint256[]) {\r\n        uint256 tokenCount = balanceOf(_owner);\r\n        if (tokenCount == 0) {\r\n            return new uint256[](0);\r\n        }else {\r\n            uint256[] memory result = new uint256[] (tokenCount);\r\n            uint256 total = totalSupply();\r\n            uint256 resultIndex = 0;\r\n\r\n            for (uint256 i = 0; i < total; i++) {\r\n                if (tokenIdToOwner[i] == _owner) {\r\n                    result[resultIndex] = i;\r\n                    resultIndex++;\r\n                }\r\n            }\r\n            return result;\r\n        }\r\n    }\r\n\r\n    function withdrawBalance(address _to, uint256 _amount) public onlyCEO {\r\n        require(_amount <= this.balance);\r\n\r\n        if(_amount == 0) {\r\n            _amount = this.balance;\r\n        }\r\n\r\n        if (_to != address(0)) {\r\n            ceoAddress.transfer(_amount);\r\n        }else{\r\n            _to.transfer(_amount);\r\n        }\r\n    }\r\n\r\n    function purchase (uint256 _tokenId) public payable whenNotPaused {\r\n        address oldOwner = ownerOf(_tokenId);\r\n        address newOwner = msg.sender;\r\n        uint256 sellingPrice = priceOf(_tokenId);\r\n\r\n        require(oldOwner != address(0));\r\n        require(newOwner != address(0));\r\n        require(oldOwner != newOwner);\r\n        require(!_isContract(newOwner));\r\n        require(sellingPrice > 0);\r\n        require(msg.value >= sellingPrice);\r\n\r\n        _transfer(oldOwner, newOwner, _tokenId);\r\n        tokenIdToPrice[_tokenId] = nextPriceOf(_tokenId);\r\n        TokenSold(\r\n            _tokenId,\r\n            doggies[_tokenId].name,\r\n            doggies[_tokenId].dna,\r\n            sellingPrice,\r\n            priceOf(_tokenId),\r\n            oldOwner,\r\n            newOwner\r\n        );\r\n\r\n        uint256 excess = msg.value.sub(sellingPrice);\r\n        uint256 contractCut = sellingPrice.mul(375).div(10000); //%3.75 cut\r\n\r\n        if (oldOwner != address(this)) {\r\n            oldOwner.transfer(sellingPrice.sub(contractCut));\r\n        }\r\n\r\n        if (excess > 0) {\r\n            newOwner.transfer(excess);\r\n        }\r\n    }\r\n\r\n    function priceOf(uint256 _tokenId) public view returns (uint256 _price) {\r\n        return tokenIdToPrice[_tokenId];\r\n    }\r\n\r\n    uint256 private increaseLimit1 = 0.02 ether;\r\n    uint256 private increaseLimit2 = 0.05 ether;\r\n    uint256 private increaseLimit3 = 2.0 ether;\r\n    uint256 private increaseLimit4 = 5.0 ether;\r\n\r\n    function nextPriceOf(uint256 _tokenId) public view returns(uint256 _nextPrice) {\r\n        uint256 _price = priceOf(_tokenId);\r\n        if (_price < increaseLimit1) {\r\n            return _price.mul(200).div(95);\r\n        }else if (_price < increaseLimit2) {\r\n            return _price.mul(135).div(96);\r\n        }else if (_price < increaseLimit3) {\r\n            _price.mul(125).div(97);\r\n        }else if (_price < increaseLimit4){\r\n            _price.mul(117).div(97);\r\n        }else{\r\n            return _price.mul(115).div(98);\r\n        }\r\n    }\r\n\r\n    function enableERC721() public onlyCEO {\r\n        erc721Enabled = true;\r\n    }\r\n\r\n    function totalSupply() public view returns (uint256 _totalSupply) {\r\n        _totalSupply = doggies.length;\r\n    }\r\n\r\n    function balanceOf(address _owner) public view returns (uint256 _balance) {\r\n        _balance = ownershipTokenCount[_owner];\r\n    }\r\n\r\n    function ownerOf(uint256 _tokenId) public view returns (address _owner) {\r\n        _owner = tokenIdToOwner[_tokenId];\r\n    }\r\n\r\n    function approve(address _to, uint256 _tokenId) public whenNotPaused onlyERC721 {\r\n        require(_owns(msg.sender, _tokenId));\r\n        tokenIdToApproved[_tokenId] = _to;\r\n        Approval(msg.sender, _to, _tokenId);\r\n    }\r\n\r\n    function transferFrom(address _from, address _to, uint256 _tokenId) public whenNotPaused onlyERC721 {\r\n        require(_to != address(0));\r\n        require(_owns(_from, _tokenId));\r\n        require(_approved(msg.sender, _tokenId));\r\n\r\n        _transfer(_from, _to, _tokenId);\r\n    }\r\n\r\n    function transfer(address _to, uint256 _tokenId) public whenNotPaused onlyERC721 {\r\n        require(_to != address(0));\r\n        require(_owns(msg.sender, _tokenId));\r\n\r\n        _transfer(msg.sender, _to, _tokenId);\r\n    }\r\n\r\n    function implementsERC721() public view whenNotPaused returns (bool) {\r\n        return erc721Enabled;\r\n    }\r\n\r\n    function takeOwnership(uint256 _tokenId) public whenNotPaused onlyERC721 {\r\n        require(_approved(msg.sender, _tokenId));\r\n        _transfer(tokenIdToOwner[_tokenId], msg.sender, _tokenId);\r\n    }\r\n\r\n    function name() public view returns (string _name) {\r\n        _name = \"BerkayCankuCagdas\";\r\n    }\r\n\r\n    function symbol() public view returns (string _symbol) {\r\n        _symbol = \"BCC\";\r\n    }\r\n\r\n    function _owns(address _claimant, uint256 _tokenId) private view returns (bool) {\r\n        return tokenIdToOwner[_tokenId] == _claimant;\r\n    }\r\n\r\n    function _approved(address _to, uint256 _tokenId) private view returns (bool) {\r\n        return tokenIdToApproved[_tokenId] == _to;\r\n    }\r\n\r\n    function _transfer(address _from, address _to, uint256 _tokenId) private {\r\n        ownershipTokenCount[_to]++;\r\n        tokenIdToOwner[_tokenId] = _to;\r\n\r\n        if(_from != address(0)){\r\n            ownershipTokenCount[_from]--;\r\n            delete tokenIdToApproved[_tokenId];\r\n        }\r\n\r\n        Transfer(_from, _to, _tokenId);\r\n    }\r\n\r\n    function _isContract(address addr) private view returns(bool) {\r\n        uint256 size;\r\n        assembly{ size := extcodesize(addr) }\r\n        return size > 0;\r\n    }\r\n\r\n}\r\n\r\n",
  "sourcePath": "C:\\Users\\Berkay\\Documents\\Git\\cryptodoggies-base\\contracts\\CryptoDoggies.sol",
  "compiler": {
    "name": "solc",
    "version": "0.4.23+commit.124ca40d.Emscripten.clang"
  },
  "schemaVersion": "2.0.0",
  "updatedAt": "2018-05-22T18:43:16.507Z"
}